:020000040800F2
:1000000000800020F55D0008C1180008C318000832
:10001000C5180008C7180008C9180008000000002B
:10002000000000000000000000000000CB180008E5
:10003000CD18000800000000CF180008D1180008F3
:10004000455E0008455E0008455E0008455E000804
:10005000455E0008455E0008455E0008455E0008F4
:10006000D9180008455E0008455E0008455E000896
:10007000455E0008455E0008455E0008455E0008D4
:10008000455E000800000000455E0008455E00086F
:10009000455E0008455E0008455E0008455E0008B4
:1000A000455E0008455E0008455E0008455E0008A4
:1000B000E5180008455E0008455E0008455E00083A
:1000C000455E0008455E0008455E0008455E000884
:1000D000455E0008455E0008455E0008F51800080A
:1000E000455E0008455E0008455E0008455E000864
:1000F000455E0008455E0008455E000800000000FF
:1001000000000000455E000800000000455E000899
:10011000455E000800000000455E0008455E0008DE
:10012000455E0008455E0008455E0008455E000823
:10013000455E00080000000000000000455E000869
:10014000455E0008455E0008000000000000000059
:10015000000000000000000000000000000000009F
:10016000000000000000000000000000455E0008E4
:10017000455E0008000000000000000000000000D4
:1001800000000000455E00080000000000000000C4
:10019000000000000000000000000000000000005F
:1001A0000000000000000000455E0008455E0008F9
:1001B000455E0008455E0008455E0008000000003E
:1001C00000000000455E0008000000000000000084
:0801D000455E0008455E0008D1
:1001D80010B5054C237833B9044B13B10448AFF379
:1001E80000800123237010BD48000020000000009B
:1001F800B472000808B5034B1BB103490348AFF3B9
:10020800008008BD000000004C000020B472000807
:1002180081F0004102E000BF83F0004330B54FEAAF
:1002280041044FEA430594EA050F08BF90EA020F1C
:100238001FBF54EA000C55EA020C7FEA645C7FEAAF
:10024800655C00F0E2804FEA5454D4EB5555B8BFD2
:100258006D420CDD2C4480EA020281EA030382EA43
:10026800000083EA010180EA020281EA0303362DD5
:1002780088BF30BD11F0004F4FEA01314FF4801CA8
:100288004CEA113102D0404261EB410113F0004FBA
:100298004FEA03334CEA133302D0524263EB430371
:1002A80094EA050F00F0A780A4F10104D5F1200E0F
:1002B8000DDB02FA0EFC22FA05F2801841F100016A
:1002C80003FA0EF2801843FA05F359410EE0A5F13E
:1002D80020050EF1200E012A03FA0EFC28BF4CF06F
:1002E800020C43FA05F3C01851EBE37101F0004525
:1002F80007D54FF0000EDCF1000C7EEB00006EEB32
:100308000101B1F5801F1BD3B1F5001F0CD34908BB
:100318005FEA30004FEA3C0C04F101044FEA445212
:1003280012F5800F80F09A80BCF1004F08BF5FEA99
:10033800500C50F1000041EB045141EA050130BD79
:100348005FEA4C0C404141EB0101013C28BFB1F58B
:10035800801FE9D291F0000F04BF01460020B1FAD6
:1003680081F308BF2033A3F10B03B3F120020CDAA9
:100378000C3208DD02F1140CC2F10C0201FA0CF087
:1003880021FA02F10CE002F11402D8BFC2F1200CEC
:1003980001FA02F120FA0CFCDCBF41EA0C019040A2
:1003A800E41AA2BF01EB0451294330BD6FEA0404EB
:1003B8001F3C1CDA0C340EDC04F11404C4F12002D6
:1003C80020FA04F001FA02F340EA030021FA04F3E8
:1003D80045EA030130BDC4F10C04C4F1200220FA3F
:1003E80002F001FA04F340EA0300294630BD21FA7D
:1003F80004F0294630BD94F0000F83F4801306BF43
:1004080081F480110134013D4EE77FEA645C18BF36
:100418007FEA655C29D094EA050F08BF90EA020FCD
:1004280005D054EA000C04BF1946104630BD91EAC5
:10043800030F1EBF0021002030BD5FEA545C05D1C8
:100448004000494128BF41F0004130BD14F5800407
:100458003CBF01F5801130BD01F0004545F0FE417B
:1004680041F470014FF0000030BD7FEA645C1ABFB0
:10047800194610467FEA655C1CBF0B46024650EAE7
:10048800013406BF52EA033591EA030F41F4002113
:1004980030BD00BF90F0000F04BF0021704730B599
:1004A8004FF4806404F132044FF000054FF000016E
:1004B80050E700BF90F0000F04BF0021704730B52F
:1004C8004FF4806404F1320410F0004548BF404204
:1004D8004FF000013EE700BF42004FEAE2014FEA59
:1004E80031014FEA02701FBF12F07F4393F07F4F34
:1004F80081F06051704732F07F4208BF704793F037
:100508007F4F04BF41F40021704730B54FF4607449
:1005180001F0004521F000411CE700BF50EA01024C
:1005280008BF704730B54FF000050AE050EA0102F5
:1005380008BF704730B511F0004502D5404261EB65
:1005480041014FF4806404F132045FEA915C3FF4A6
:10055800D8AE4FF003025FEADC0C18BF03325FEA43
:10056800DC0C18BF033202EBDC02C2F1200300FAF4
:1005780003FC20FA02F001FA03FE40EA0E0021FA19
:1005880002F11444BDE600BF70B54FF0FF0C4CF407
:10059800E06C1CEA11541DBF1CEA135594EA0C0FB9
:1005A80095EA0C0F00F0DEF82C4481EA030621EAF4
:1005B8004C5123EA4C5350EA013518BF52EA03352F
:1005C80041F4801143F4801338D0A0FB02CE4FF0E1
:1005D8000005E1FB02E506F00042E0FB03E54FF011
:1005E8000006E1FB03569CF0000F18BF4EF0010E09
:1005F800A4F1FF04B6F5007F64F5407404D25FEA05
:100608004E0E6D4146EB060642EAC62141EA5551B7
:100618004FEAC52040EA5E504FEACE2EB4F1FD0CF9
:1006280088BFBCF5E06F1ED8BEF1004F08BF5FEA77
:10063800500E50F1000041EB045170BD06F0004629
:1006480046EA010140EA020081EA0301B4EB5C04D6
:10065800C2BFD4EB0C0541EA045170BD41F48011CE
:100668004FF0000E013C00F3AB8014F1360FDEBFF3
:10067800002001F0004170BDC4F10004203C35DACF
:100688000C341BDC04F11404C4F1200500FA05F352
:1006980020FA04F001FA05F240EA020001F00042F3
:1006A80021F0004110EBD37021FA04F642EB060169
:1006B8005EEA430E08BF20EAD37070BDC4F10C0493
:1006C800C4F1200500FA04F320FA05F001FA04F257
:1006D80040EA020001F0004110EBD37041F1000143
:1006E8005EEA430E08BF20EAD37070BDC4F120054E
:1006F80000FA05F24EEA020E20FA04F301FA05F2B6
:1007080043EA020321FA04F001F0004121FA04F25D
:1007180020EA020000EBD3705EEA430E08BF20EA2D
:10072800D37070BD94F0000F0FD101F00046400067
:1007380041EB010111F4801F08BF013CF7D041EAE9
:10074800060195F0000F18BF704703F000465200ED
:1007580043EB030313F4801F08BF013DF7D043EABE
:100768000603704794EA0C0F0CEA135518BF95EA74
:100778000C0F0CD050EA410618BF52EA4306D1D1FB
:1007880081EA030101F000414FF0000070BD50EA1A
:10079800410606BF1046194652EA430619D094EAA4
:1007A8000C0F02D150EA013613D195EA0C0F05D18E
:1007B80052EA03361CBF104619460AD181EA0301E2
:1007C80001F0004141F0FE4141F470014FF000009A
:1007D80070BD41F0FE4141F4780170BD70B54FF035
:1007E800FF0C4CF4E06C1CEA11541DBF1CEA1355B5
:1007F80094EA0C0F95EA0C0F00F0A7F8A4EB050497
:1008080081EA030E52EA03354FEA013100F088808D
:100818004FEA03334FF0805545EA131343EA126356
:100828004FEA022245EA111545EA10654FEA00260B
:100838000EF000419D4208BF964244F1FD0404F5C4
:10084800407402D25B084FEA3202B61A65EB030520
:100858005B084FEA32024FF480104FF4002CB6EBDD
:10086800020E75EB030E22BFB61A754640EA0C005D
:100878005B084FEA3202B6EB020E75EB030E22BF9D
:10088800B61A754640EA5C005B084FEA3202B6EBDE
:10089800020E75EB030E22BFB61A754640EA9C009D
:1008A8005B084FEA3202B6EB020E75EB030E22BF6D
:1008B800B61A754640EADC0055EA060E18D04FEA2B
:1008C800051545EA16754FEA06164FEAC30343EACB
:1008D80052734FEAC2025FEA1C1CC0D111F4801F98
:1008E8000BD141EA00014FF000004FF0004CB6E791
:1008F80011F4801F04BF01430020B4F1FD0C88BF30
:10090800BCF5E06F3FF6AFAEB5EB030C04BFB6EB3A
:10091800020C5FEA500C50F1000041EB045170BD2D
:100928000EF0004E4EEA113114EB5C04C2BFD4EB5A
:100938000C0541EA045170BD41F480114FF0000EDE
:10094800013C90E645EA060E8DE60CEA135594EA5A
:100958000C0F08BF95EA0C0F3FF43BAF94EA0C0F5D
:100968000AD150EA01347FF434AF95EA0C0F7FF4D2
:1009780025AF104619462CE795EA0C0F06D152EA26
:1009880003353FF4FDAE1046194622E750EA41060A
:1009980018BF52EA43067FF4C5AE50EA41047FF41B
:1009A8000DAF52EA43057FF4EBAE12E74FF0FF3C80
:1009B80006E000BF4FF0010C02E000BF4FF0010C51
:1009C8004DF804CD4FEA410C7FEA6C5C4FEA430CCA
:1009D80018BF7FEA6C5C1BD001B050EA410C0CBF19
:1009E80052EA430C91EA030F02BF90EA020F00207B
:1009F800704710F1000F91EA030F58BF994208BFE2
:100A080090422CBFD8176FEAE37040F0010070479E
:100A18004FEA410C7FEA6C5C02D150EA013C07D1F5
:100A28004FEA430C7FEA6C5CD6D152EA033CD3D040
:100A38005DF8040B704700BF8446104662468C463A
:100A48001946634600E000BF01B5FFF7B7FF00286D
:100A580048BF10F1000F01BD4DF808EDFFF7F4FF96
:100A68000CBF012000205DF808FB00BF4DF808ED21
:100A7800FFF7EAFF34BF012000205DF808FB00BF44
:100A88004DF808EDFFF7E0FF94BF012000205DF866
:100A980008FB00BF4DF808EDFFF7CEFF94BF01201B
:100AA80000205DF808FB00BF4DF808EDFFF7C4FF14
:100AB80034BF012000205DF808FB00BF4FEA410267
:100AC80012F5001215D211D56FF47873B3EB625298
:100AD80012D94FEAC12343F0004343EA505311F0BF
:100AE800004F23FA02F018BF404270474FF0000051
:100AF800704750EA013005D111F0004008BF6FF08F
:100B0800004070474FF00000704700BF4A0011D204
:100B180012F5001211D20DD56FF47873B3EB62524F
:100B28000ED44FEAC12343F0004343EA505323FA5B
:100B380002F070474FF00000704750EA013002D1D0
:100B48004FF0FF3070474FF0000070474FEA410206
:100B5800B2F1E04324BFB3F5001CDCF1FE5C0DD913
:100B680001F0004C4FEAC0024CEA5070B2F1004F5D
:100B780040EB830008BF20F00100704711F0804F60
:100B880021D113F13872BCBF01F00040704741F425
:100B980080114FEA5252C2F11802C2F1200C10FA29
:100BA8000CF320FA02F018BF40F001004FEAC1230D
:100BB8004FEAD32303FA0CFC40EA0C0023FA02F3B1
:100BC8004FEA4303CCE77FEA625307D150EA013387
:100BD8001EBF4FF0FE4040F44000704701F0004057
:100BE80040F0FE4040F40000704700BF53B94AB9D6
:100BF800002908BF00281CBF4FF0FF314FF0FF301D
:100C080000F074B9ADF1080C6DE904CE00F006F8F7
:100C1800DDF804E0DDE9022304B070472DE9F04770
:100C2800089D04468E46002B4DD18A42944669D9C8
:100C3800B2FA82F252B101FA02F3C2F1200120FAAB
:100C480001F10CFA02FC41EA030E94404FEA1C48F9
:100C5800210CBEFBF8F61FFA8CF708FB16E341EAF5
:100C6800034306FB07F199420AD91CEB030306F17B
:100C7800FF3080F01F81994240F21C81023E63449C
:100C88005B1AA4B2B3FBF8F008FB103344EA034440
:100C980000FB07F7A7420AD91CEB040400F1FF3355
:100CA80080F00A81A74240F207816444023840EA92
:100CB8000640E41B00261DB1D4400023C5E90043CB
:100CC8003146BDE8F0878B4209D9002D00F0EF804E
:100CD8000026C5E9000130463146BDE8F087B3FA81
:100CE80083F6002E4AD18B4202D3824200F2F98069
:100CF800841A61EB030301209E46002DE0D0C5E96C
:100D0800004EDDE702B9FFDEB2FA82F2002A40F0B7
:100D18009280A1EB0C014FEA1C471FFA8CFE0126BA
:100D2800200CB1FBF7F307FB131140EA01410EFB5E
:100D380003F0884208D91CEB010103F1FF3802D205
:100D4800884200F2CB804346091AA4B2B1FBF7F0FF
:100D580007FB101144EA01440EFB00FEA64508D922
:100D68001CEB040400F1FF3102D2A64500F2BB805F
:100D78000846A4EB0E0440EA03409CE7C6F12007AE
:100D8800B34022FA07FC4CEA030C20FA07F401FAF4
:100D980006F31C43F9404FEA1C4900FA06F3B1FB7D
:100DA800F9F8200C1FFA8CFE09FB181140EA0141E2
:100DB80008FB0EF0884202FA06F20BD91CEB01017F
:100DC80008F1FF3A80F08880884240F28580A8F1D7
:100DD80002086144091AA4B2B1FBF9F009FB101129
:100DE80044EA014100FB0EFE8E4508D91CEB0101C7
:100DF80000F1FF346CD28E456AD90238614440EA6A
:100E08000840A0FB0294A1EB0E01A142C846A646E9
:100E180056D353D05DB1B3EB080261EB0E0101FA72
:100E280007F722FA06F3F1401F43C5E900710026CF
:100E38003146BDE8F087C2F12003D8400CFA02FC25
:100E480021FA03F3914001434FEA1C471FFA8CFE35
:100E5800B3FBF7F007FB10360B0C43EA064300FB25
:100E68000EF69E4204FA02F408D91CEB030300F1C3
:100E7800FF382FD29E422DD9023863449B1B89B27A
:100E8800B3FBF7F607FB163341EA034106FB0EF303
:100E98008B4208D91CEB010106F1FF3816D28B42B0
:100EA80014D9023E6144C91A46EA004638E72E467C
:100EB800284605E70646E3E61846F8E64B45A9D274
:100EC800B9EB020864EB0C0E0138A3E74646EAE7E3
:100ED800204694E74046D1E7D0467BE7023B614491
:100EE80032E7304609E76444023842E7704700BFFA
:100EF8002DE9F04188B000240394049405940694E5
:100F080007943B4BDA6C42F00102DA64DA6C02F0C7
:100F180001020092009ADA6C42F00202DA64DA6C9A
:100F280002F002020192019ADA6C42F00402DA64D9
:100F3800DB6C03F004030293029B2E4D2246C22170
:100F4800284602F068FF22464FF400614FF09040B7
:100F580002F061FF284F22464FF44061384602F004
:100F68005AFFC2230393012604960594069403A905
:100F7800284602F05FFE042303934FF4881304937A
:100F8800059403A9284602F055FE4FF48058CDF881
:100F98000C800494059403A9284602F04BFE4FF4F4
:100FA8000063039304960594069403A94FF09040B8
:100FB80002F040FECDF80C800494059403A94FF08C
:100FC800904002F037FE4FF4406303930496059473
:100FD800069403A9384602F02DFE22462146082031
:100FE80003F044F8082003F079F808B0BDE8F08170
:100FF80000100240000400480008004800000000FB
:1010080038B5044603F02CFC012826D0204603F00E
:1010180027FC02285BD0204603F022FC08285BD07E
:10102800354C204603F0F6FA2568686AFFF742FA5D
:1010380002460B462CA1D1E90001FFF7CFFB2CA3F8
:10104800D3E90023FFF7A0FA2C4BC3E916010023CC
:101058006B62204603F0A0FA38BD284A936F01332B
:101068009367274B1B684BB90021204603F0E6FA2B
:10107800244B1860224B01221A60C7E70021204642
:1010880003F0DCFA204B18601E4B1B68984217D9F6
:10109800C01A1E4B18601D4BD3ED007AF8EE677A24
:1010A800DFED1B6A86EEA77A1A4B83ED007A226879
:1010B80000235362124A1360104B83ED247AA5E78C
:1010C8009842E8D2C01A0138104B1860E3E70B4A7F
:1010D800936F013393679EE7084A936F01339367D1
:1010E8009EE700BFAFF300800000000080842E411F
:1010F8004904BD4A51C1F03F58020020D8030020DE
:10110800D003002080040020840400206400002014
:10111800002474496800002072B6FEE710B58CB050
:10112800002409940A940B942022214601A804F073
:10113800ABFE28484FF0A04303604FF40023436000
:101148008460C460046101234361042383610477DC
:1011580044770323036280F82440C462046380F860
:101168003840C46380F8404001F02AF938BB0023B6
:10117800099309A9174801F00FFF10BB164B0193FB
:1011880006230293022303937F23049304230593E6
:101198000023069301A90F4801F0B8FA98B90C2367
:1011A800029301A90B4801F0B1FA70B91223029316
:1011B80001A9084801F0AAFA48B90CB010BDFFF718
:1011C800ABFFFFF7A9FFFFF7A7FFFFF7A5FFFFF7A3
:1011D800A3FF00BF6C0000200200300400B589B0F6
:1011E80020220021684604F04FFE2048204B03606F
:1011F8004FF40023436000238360C360036101222E
:10120800426108218161037742770222026280F8F5
:101218002430C362036380F83830C36380F84030F9
:1012280001F0CEF8E0B9134B009306230193032392
:1012380002937F23039304230493002305936946B1
:101248000A4801F063FA68B90B4B00930C23019329
:101258006946064801F05AFA30B909B05DF804FB4E
:10126800FFF75AFFFFF758FFFFF756FFD800002097
:10127800000100500800900C1000C01008B510487C
:10128800104B03604FF482734360002383604FF474
:101298007062C2600222026143614FF4007282618F
:1012A8001822C2610362436283620722C262036337
:1012B8000823436302F034FF00B908BDFFF72CFF91
:1012C800440100200030014010B59CB0002418945F
:1012D80019941A941B941594169417940E940F94B9
:1012E800109411941294139414943422214601A852
:1012F80004F0CAFD3748384B0360062343602023B7
:101308008360FF23C36004614461846103F00EFBC2
:1013180000284FD14FF48053189318A92D4803F093
:101328001DFD002848D12B4803F030FB002845D18B
:101338002023159300231693179315A9254803F026
:1013480039FF00283CD160230E9300220F9210929F
:1013580011921292139214920EA91E4803F0BCFB2C
:1013680000282FD104220EA91A4803F0B5FB58BB58
:1013780008220EA9174803F0AFFB38BB00230193DE
:1013880002930393049305934FF400520692079334
:10139800089309934FF000720A920B930C930D93E4
:1013A80001A90C4803F050FF90B90A4800F03CFC32
:1013B8001CB010BDFFF7B0FEFFF7AEFEFFF7ACFEA6
:1013C800FFF7AAFEFFF7A8FEFFF7A6FEFFF7A4FEA9
:1013D800FFF7A2FE0C020020002C014000B589B0E6
:1013E80000230593069307930193029303930493B1
:1013F8001F484FF0804202609622426083604FF09F
:10140800FF32C2600361836103F0F0FA28BB002356
:101418000593079305A9164803F0CCFEF8B90A23EB
:1014280001930123029300220392049201A9104818
:1014380003F024FCA8B90023019304220DEB020158
:101448000B4803F01BFC70B90C2201A9084803F0F3
:1014580015FC50B909B05DF804FBFFF75DFEFFF716
:101468005BFEFFF759FEFFF757FEFFF755FE00BF7B
:10147800A402002010B598B000241594169417946F
:101488000E940F941094119412941394149434227B
:10149800214601A804F0F8FC2E482F4B036040F2C7
:1014A8000B2343608460FE23C3600461446184614C
:1014B80003F06CFA002840D1002315931693179374
:1014C80015A9244803F076FE002838D160230E932E
:1014D80000220F92109211921292139214920EA956
:1014E8001C4803F0F9FA00282BD104220EA9194848
:1014F80003F0F2FA38BB08220EA9164803F0ECFAFA
:1015080018BB0023019302930393049305934FF4AC
:10151800005206920793089309934FF000720A92BB
:101528000B930C930D9301A90A4803F08DFE70B933
:10153800084800F079FB18B010BDFFF7EDFDFFF784
:10154800EBFDFFF7E9FDFFF7E7FDFFF7E5FDFFF727
:10155800E3FD00BFF00200200034014008B5154843
:10156800154B03604FF4E133436000238360C3608D
:1015780003610C2242618361C36103624362836237
:1015880004F065FB70B900210A4804F0DBFB58B988
:101598000021084804F0FBFB40B9064804F0B3FBFF
:1015A80030B908BDFFF7B8FDFFF7B6FDFFF7B4FD8A
:1015B800FFF7B2FD3C0300200048004008B5114881
:1015C800114B03604FF4827343604FF48063836070
:1015D8004FF43063C36002230361002343614FF477
:1015E800007282612822C261036243628362072219
:1015F800C26203630823436302F092FD00B908BD89
:10160800FFF78AFDA80100200038004008B5094806
:10161800094B036096234360002383604FF6FF72F3
:10162800C26003614361836103F080F900B908BDBA
:10163800FFF772FD580200200048014000B595B040
:101648003822002106A804F01FFC0023019302930E
:101658000393049305934FF4007002F067FC022390
:1016680006934FF48072099240220A920D930E93CA
:1016780004220F924B22109211931293139306A8EF
:1016880001F08AFD80B90F230193032302930023FD
:1016980003930493059304210DEB010002F032F843
:1016A80020B915B05DF804FBFFF736FDFFF734FDF0
:1016B8002DE9D0432DED028B01F020FDFFF7BEFF91
:1016C800FFF716FCFFF72AFDFFF788FDFFF7D6FDA9
:1016D800FFF7FAFDFFF782FEFFF7CCFEFFF73EFFAC
:1016E800FFF76CFFFFF792FF614C624B2360624B80
:1016F800E363624BE364624A04F11C0392E803006B
:1017080083E803005F4A04F1240392E8030083E8B6
:1017180003005D4A04F12C0392E8030083E8030008
:101728005A4B04F1340293E8030082E80300584955
:10173800221D03C982E80300564904F10C0203C9BB
:1017480082E80300544904F1140203C982E8030043
:10175800524AC4F88820012284F8A720998818687A
:1017680002F059FB204600F06BFB00214C4803F0C7
:101778004DFC08B1FFF7D0FC0421494803F046FCB2
:1017880008B1FFF7C9FC0C21454803F03FFC18B924
:10179800444B00221A600AE0FFF7BEFC424AC4F834
:1017A8008820334800F0FCFB404B83ED008A304C26
:1017B800204600F0E5FAD4ED247A9FED3D8A38EE14
:1017C800678A18EE100AFEF787FE06460F46D4F819
:1017D8008800FEF781FE804689461FA3D3E90023CF
:1017E80030463946FEF7D0FE02460B46404649468B
:1017F800FEF714FD804689462C4B1868FEF76CFEF0
:1018080002460B4630463946FEF706FD14A3D3E9D7
:101818000023FEF7B9FE02460B4640464946FEF74E
:10182800FDFCFFF793F908EE900AC4F88800FEF76C
:1018380053FE0DA3D3E90023FFF736F90028ADD1F5
:10184800DFED1C7AF4EEE78AF1EE10FAA9D5084B21
:10185800C3ED227AA5E700BF76830DF4F521943E07
:101868002D431CEBE2364A3F9A9999999999D93FA9
:10187800D80300200C0200206C000020A8010020E2
:101888001800002020000020280000203000002040
:101898000000002008000020100000209A99993EBE
:1018A800A402002088040020CDCCCC3ED403002024
:1018B8000000C8420AD7A33BFEE7FEE7FEE7FEE7C3
:1018C800FEE770477047704708B501F027FC08BD70
:1018D80008B5042002F0A6FA08BD000008B50248C1
:1018E80002F0C9FE08BD00BFA402002008B50248E6
:1018F80003F04CFD08BD00BF3C03002000B583B0D9
:101908000B4B1A6E42F001021A661A6E02F00102BF
:101918000092009A9A6D42F080529A659B6D03F08E
:1019280080530193019B02F087FB03B05DF804FB31
:101938000010024010B59AB0044600211591169186
:10194800179118911991442204A804F09DFA23686C
:10195800B3F1A04F04D0364A934235D01AB010BD27
:101968004FF4004304934FF00053139304A801F07D
:10197800EFFFD8B92F4A136801331360012B18D031
:101988002D4BDA6C42F00102DA64DB6C03F00103E0
:101998000193019B072315930323169300231793A1
:1019A80015A94FF0904002F045F9D7E7FFF7B4FBCF
:1019B800E0E7214BDA6C42F40052DA64DB6C03F4A2
:1019C80000530093009BDBE74FF4004304934FF070
:1019D8000053139304A801F0BBFFD8B9154A136844
:1019E80001331360012B18D0134BDA6C42F001025B
:1019F800DA64DB6C03F001030393039BC0231593A4
:101A0800032316930023179315A94FF0904002F073
:101A180011F9A3E7FFF780FBE0E7074BDA6C42F424
:101A28000052DA64DB6C03F400530293029BDBE799
:101A3800000100508C0400200010024030B58BB02B
:101A480000230593069307930893099303682D4A87
:101A5800934204D02C4A934234D00BB030BD2B4B68
:101A68001A6E42F480521A661A6E02F4805200927C
:101A7800009ADA6C42F00102DA64DA6C02F00102D0
:101A88000192019ADA6C42F00202DA64DB6C03F02C
:101A980002030293029B2023059302250695052441
:101AA800099405A94FF0904002F0C4F8302305933B
:101AB8000695002307930893099405A9144802F092
:101AC800B9F8CAE7114B9A6D42F480429A659A6D4B
:101AD80002F480420392039ADA6C42F00202DA645A
:101AE800DB6C03F002030493049B4FF4C04305939B
:101AF800022306930523099305A9054802F09AF8DD
:101B0800ABE700BF00300140003800400010024041
:101B18000004004882B003680E4A934204D00E4A7B
:101B280093420CD002B070470C4B1A6E42F400621C
:101B38001A661B6E03F400630093009BF2E7074BE1
:101B48001A6E42F480221A661B6E03F480230193F6
:101B5800019BE7E7002C01400048014000100240CB
:101B680030B589B000230393049305930693079334
:101B78000368B3F1804F01D009B030BD03F50433D9
:101B88009A6D42F001029A659A6D02F00102009284
:101B9800009ADA6C42F00102DA64DA6C02F00102AF
:101BA8000192019ADA6C42F00202DA64DB6C03F00B
:101BB80002030293029B48F208030393022404944D
:101BC8000125079503A94FF0904002F033F8082348
:101BD80003930494002405940694079503A90648E2
:101BE80002F028F8224621461C2002F03FFA1C2069
:101BF80002F074FAC0E700BF000400480268094B0D
:101C08009A4200D0704782B003F55C431A6E42F4E2
:101C180000521A661B6E03F400530193019B02B035
:101C2800704700BF0034014010B588B0002303930B
:101C380004930593069307930368254A934204D0B7
:101C4800244A934218D008B010BD234BDA6C42F0F6
:101C58000102DA64DB6C03F001030093009B4FF48C
:101C6800E0630393022304930623079303A94FF029
:101C7800904001F0DFFFE6E7174BDA6C42F0040210
:101C8800DA64DA6C02F004020192019ADA6C42F02A
:101C98000202DA64DB6C03F002030293029B402326
:101CA8000393022404940423079303A90B4801F027
:101CB800C1FF4FF4407303930494002305930693E4
:101CC8000A23079303A9064801F0B4FFBBE700BF46
:101CD800002C014000340140001002400008004878
:101CE8000004004810B598B00446002113911491DF
:101CF800159116911791442202A804F0C5F822689C
:101D08001B4B9A4201D018B010BD0423029302A8BD
:101D180001F01EFE48BB174B9A6D42F480229A656B
:101D28009A6D02F480220092009ADA6C42F0020264
:101D3800DA64DB6C03F002030193019B4FF4406308
:101D480013930223149300241594169407231793CE
:101D580013A9094801F06EFF22462146272002F008
:101D680085F9272002F0BAF9CDE7FFF7D5F9D2E7D0
:101D78000048004000100240000400480000000035
:101D880070B505460189406802F03EF80646298A82
:101D9800E86802F039F80446298B686902F034F8DB
:101DA800640044EA800444EA0603013B052B35D865
:101DB800DFE803F023131B032B0B00220023C5E9E4
:101DC8001823042385F8523070BD0022184BC5E94A
:101DD8001823062385F85230F6E70022154BC5E98B
:101DE8001823022385F85230EEE70022124BC5E98A
:101DF8001823032385F85230E6E700220F4BC5E984
:101E08001823012385F85230DEE707A3D3E900231E
:101E1800C5E91823052385F85230D5E7D5F8A03051
:101E28000133C5F8A030CFE70000000000C07240C1
:101E380000004E4000005E400080664000006E409A
:101E480038B52DED028B04460021006803F032F806
:101E58000421206803F02EF80821206803F02AF8EE
:101E6800D4ED228A4FF07E53C4F8883023681B686B
:101E7800FF225A630122218CE06901F0CCFF23681C
:101E88001B6800229A630122218D606A01F0C3FF5A
:101E9800C4ED228A9FED1D8A68EE887A17EE900AB3
:101EA800FEF71AFB41EC100B03F0F6FF51EC100B98
:101EB80023681D68FEF72AFE6863D4ED227A67EE70
:101EC800887A17EE900AFEF707FB41EC100B03F037
:101ED800E3FF51EC100B23681D68FEF717FEA8639B
:101EE800D4ED227A67EE887A17EE900AFEF7F4FAB4
:101EF80041EC100B03F0D0FF51EC100B23681C6869
:101F0800FEF704FEE063BDEC028B38BD00007F43A2
:101F180010B588B0044620220021684603F0B4FFBB
:101F2800064B0093012301936946E06B00F0EEFB3A
:101F380008B908B010BDFFF7EFF8FAE7020030045F
:101F480010B588B0044620220021684603F09CFFA3
:101F5800064B0093012301936946E06B00F0D6FB22
:101F680008B908B010BDFFF7D7F8FAE70400600811
:101F780010B588B0044620220021684603F084FF8B
:101F8800064B0093012301936946E06B00F0BEFB0A
:101F980008B908B010BDFFF7BFF8FAE70800900CC1
:101FA800D0B50446FFF7B4FFE06B00F00FFF6421E3
:101FB800E06B00F01FFBE06B00F0A4FBFEF76AFA91
:101FC80097A3D3E90023FEF7DFFA00229C4BFEF724
:101FD800DBFA8FA3D3E90023FEF7D6FA8EA3D3E961
:101FE8000023FEF7FBFBFEF7B1FDA066E06B00F0F7
:101FF800B1FF2046FFF7A4FFE06B00F0E7FE642185
:10200800E06B00F0F7FAE06B00F07CFBFEF742FAB9
:1020180083A3D3E90023FEF7B7FA0022884BFEF723
:10202800B3FA7BA3D3E90023FEF7AEFA7AA3D3E988
:102038000023FEF7D3FBFEF789FDE066E06B00F0B6
:1020480089FF2046FFF794FFE06B00F0BFFE642194
:10205800E06B00F0CFFAE06B00F054FBFEF71AFAE1
:102068006FA3D3E90023FEF78FFA0022744BFEF723
:102078008BFA67A3D3E90023FEF786FA66A3D3E9B0
:102088000023FEF7ABFBFEF761FD2067E06B00F075
:1020980061FF0122218CE06901F0BDFE0122218D42
:1020A800606A01F0B8FE0122218EE06A01F0B3FEF9
:1020B80094F8A730002B00F0C9805BA3D3E9002374
:1020C800D4E91801FEF760FA00225E4BFEF786FBA2
:1020D80041EC100B03F030FF51EC100B00225A4B6F
:1020E800FEF752FA0022584BFEF798F850A3D3E9AE
:1020F8000023FEF749FA06460F46D4F88800FEF793
:10210800EBF902460B4630463946FEF73DFA41ECFC
:10211800100B03F0C1FE51EC100B23681E68FEF78C
:10212800F5FC706340A3D3E90023D4E91801FEF756
:102138002BFA0022434BFEF751FB3FA3D3E90023C0
:10214800FEF76AF841EC100B03F0F6FE51EC100BA9
:1021580000223D4BFEF718FA00223B4BFEF75EF8D3
:1021680033A3D3E90023FEF70FFA06460F46D4F847
:102178008800FEF7B1F902460B4630463946FEF7AD
:1021880003FA41EC100B03F087FE51EC100B2368A7
:102198001E68FEF7BBFCB06323A3D3E90023D4E990
:1021A8001801FEF7F1F90022264BFEF717FB22A3D0
:1021B800D3E90023FEF732F841EC100B03F0BCFE24
:1021C80051EC100B0022204BFEF7DEF900221E4BCB
:1021D800FEF724F816A3D3E90023FEF7D5F906463F
:1021E8000F46D4F88800FEF777F902460B463046CA
:1021F8003946FEF7C9F941EC100B03F04DFE51ECDE
:10220800100B23681C68FEF781FCE063D0BD00BF9B
:102218000000000000F8C140000000000090BA4033
:102228000000006066660A406E861BF0F9210940CE
:102238000000000000E06F404904BD4A51C1004061
:102248000000303F008066400000E03F56A3D3E91D
:102258000023D4E91801FEF797F90022564BFEF740
:10226800BDFA41EC100B03F067FE51EC100B002295
:10227800524BFEF789F90022504BFDF7CFFF48A3D8
:10228800D3E90023FEF780F906460F46D4F8880004
:10229800FEF722F902460B4630463946FEF774F936
:1022A80041EC100B03F0F8FD51EC100B23681E688D
:1022B800FEF72CFC70633CA3D3E90023D4E9180192
:1022C800FEF762F900223C4BFEF788FA38A3D3E9FF
:1022D8000023FDF7A3FF41EC100B03F02DFE51EC9A
:1022E800100B0022354BFEF74FF90022334BFDF758
:1022F80095FF2BA3D3E90023FEF746F906460F46C0
:10230800D4F88800FEF7E8F802460B46304639460E
:10231800FEF73AF941EC100B03F0BEFD51EC100B3F
:1023280023681E68FEF7F2FBB0631FA3D3E90023FE
:10233800D4E91801FEF728F900221F4BFEF74EFAE0
:102348001BA3D3E90023FDF767FF41EC100B03F053
:10235800F3FD51EC100B0022184BFEF715F9002283
:10236800164BFDF75BFF0EA3D3E90023FEF70CF92C
:1023780006460F46D4F88800FEF7AEF802460B462C
:1023880030463946FEF700F941EC100B03F084FDA6
:1023980051EC100B23681C68FEF7B8FBE06335E7C7
:1023A8000000000000E06F406E861BF0F921094034
:1023B8004904BD4A51C10040008066400000E03F2A
:1023C80030B583B000230193002800F0078104464C
:1023D800C36D13B323689A6812F0005F05D09A683A
:1023E80022F0204222F03F029A602268936813F09C
:1023F800805F1FD1936823F0104323F03F0343F01D
:1024080080539360764B1B689B09764AA2FB032393
:102418009B0901335B00019309E0FFF78BFA002366
:10242800236684F85830D5E7019B013B0193019B53
:10243800002BF9D12268936813F0805F40F09680F2
:10244800E36D43F01003E365236E43F00103236655
:102458000120936813F0040300D00123E16D11F00B
:10246800100F40F0B480002B40F0B180E36D23F4EE
:10247800817343F00203E365936813F0010F15D1EC
:102488004FF0A0439B6813F0010300D00123564A84
:10249800926812F0010200D00122134306D163684A
:1024A80052498A6822F47C1213438B60627FE36B83
:1024B80043EA4233E2681343A268134394F82420A2
:1024C80043EA0243012A53D0E26A22B102F4787245
:1024D800216B0A4313432168CD68454A2A401343B8
:1024E800CB602268136923F04063616B0B4313616F
:1024F8002268936813F0080300D001233BBB217FB7
:1025080094F838305B0043EA8131D36823F4804380
:1025180023F002030B43D360236973B32268136962
:1025280043F4803313612268D2F8C03023F47F5318
:1025380023F03F0321690B43C2F8C03094F84030C0
:10254800012B29D02268136923F001031361636901
:10255800012B33D02268136B23F00F031363E36D51
:1025680023F0030343F00103E36535E0002070E73F
:10257800A26A013A43EA4243A6E72268136923F4B0
:10258800803313612268D2F8C03023F47F5323F0DC
:102598003F03C2F8C030D1E721680B6923F4FF6319
:1025A80023F00403626CA56C2A43E56C2A43256D6D
:1025B8002A43134343F001030B61C8E721680B6BFF
:1025C80023F00F03226A013A13430B63C7E7E36D55
:1025D80043F01003E365012003B030BD0120FBE7A1
:1025E80040000020632D3E0500010050000300500C
:1025F8000740F0FF2DE9F04104460E463F4B9F6827
:1026080007F01F078569082D11D057B1052F08D08D
:10261800092F06D0394B9B6813F4604F2CD1042541
:1026280005E02368DB6813F0010F1FD1042500F0D3
:1026380081FD804623681A682A4223D1B6F1FF3FFC
:10264800F8D000F077FDA0EB0800B04201D8002ECA
:10265800F0D123681B682B42ECD1E36D43F00403EF
:10266800E365002384F85830032042E0E36D43F02B
:102678002003E36501203CE0C36D43F02003C365FC
:10268800012036E0E26D42F40072E265DA6812F485
:10269800406F11D1627F7AB91A6812F0080F0BD017
:1026A800E26D22F48072E265E26D12F4805F03D17C
:1026B800E26D42F00102E265114A934209D01A46DE
:1026C800934209D047B1052F06D0092F04D0D2680C
:1026D80003E04FF0A042F3E7DA68082D06D012F4C1
:1026E800804F08D10C221A60002002E008221A60EC
:1026F8000020BDE8F0810020FBE700BF0003005088
:10270800000100500368186C70470000F0B583B0F2
:102718000022019290F85820012A00F05E820346B8
:10272800012280F858200568A86810F0040F09D025
:10273800DA6D42F02002DA650120002283F8582081
:1027480003B0F0BD4C683035220A920002F00C024A
:10275800A85804F01F0E1F2404FA0EF420EA0400FF
:102768000C68C4F3846C0CFA0EFC40EA0C00A85008
:102778001868826812F0040200D00122846814F0FC
:10278800080400D00124002A50D1002C4ED18D68B5
:10279800B5F1004F00F082800F6814307A0E920075
:1027A80002F004028658C7F3045E4FF0070C0CFAD7
:1027B8000EFC26EA0C0C05FA0EF54CEA05058550C8
:1027C8001868426922F0004242614D691868C2687F
:1027D800C2F3C102520005FA02F20E69042E75D046
:1027E800603050F82670A84D3D400F6807F0F84754
:1027F8003A43154345F0004540F826501A680E69DB
:102808008869603252F8265025F08075284342F8CE
:1028180026001A680D69087F012854D0603252F8E2
:10282800250020F00070044342F8254018688268AB
:1028380012F0010F17D10A68CD68D0F8B040C2F382
:10284800120C24EA0C0405F0180C904D25FA0CF52E
:102858002A40C2F312022243C0F8B020C8688C4A4A
:10286800904200F09B800A688A490A4200F0AD81D4
:102878008949896801F0E070884CA24200F05C81C7
:10288800874CA24200F05881864CA24200F07A811F
:10289800854CA24200F0888100204EE70D68143074
:1028A8006A0E920002F004028658C5F30455072701
:1028B80007FA05F526EA050585501868426942F0C9
:1028C8000042426181E74FF00074A7E7026E046E90
:1028D800C4F384640A68C2F3120585BBC2F3846238
:1028E800944234D01C68626E606EC0F384600A68DB
:1028F800C2F3120585BBC2F38462904234D01C68CF
:10290800A26EA06EC0F384600A68C2F3120585BB8C
:10291800C2F38462904234D01C68E26EE06EC0F369
:1029280084600A68C2F3120585BBC2F384629042D0
:102938007FF47CAFE26E22F00042E26676E792FA1C
:10294800A2F212B1B2FA82F2CAE72022C8E7026EF6
:1029580022F000420266C5E792FAA2F212B1B2FA78
:1029680082F2CAE72022C8E7626E22F0004262665D
:10297800C5E792FAA2F212B1B2FA82F2CAE72022AD
:10298800C8E7A26E22F00042A266C5E792FAA2F258
:1029980012B1B2FA82F2CAE72022C8E71C680A68B4
:1029A800C2F31205002D38D1900E013000F01F003F
:1029B80009288CBF00200120002877D0002D3BD1AA
:1029C800900E0130800600F0F840002D40D1960EA0
:1029D800013606F01F070126BE403043002D45D1C1
:1029E800920E013202F01F0202EB4202120502436C
:1029F800886804F11406550EAD0005F004057459F5
:102A0800C2F304524FF0070C0CFA02FC24EA0C0C37
:102A180090404CEA0000705125E792FAA2F048B1C4
:102A2800B0FA80F0013000F01F0009288CBF0020A8
:102A38000120C1E72020F5E792FAA2F030B1B0FA00
:102A480080F00130800600F0F840BEE72020F8E76B
:102A580092FAA2F646B1B6FA86F6013606F01F06D5
:102A6800012707FA06F6B8E72026F6E792FAA2F257
:102A780042B1B2FA82F2013202F01F0202EB4202C4
:102A88001205B4E72022F6E700F0FF03FFFF070076
:102A980000007F400000088000030050000021C3B0
:102AA8001000C090000052C7000084CBCDB9900E32
:102AB8000130800600F0F840FDB9960E013606F0A8
:102AC8001F070126BE4030432DBB920E013202F093
:102AD8001F0202EB42021E3A120542F00072024344
:102AE80086E792FAA2F030B1B0FA80F001308006A1
:102AF80000F0F840E0E72020F8E792FAA2F646B1A5
:102B0800B6FA86F6013606F01F06012707FA06F61A
:102B1800D9E72026F6E792FAA2F25AB1B2FA82F27F
:102B2800013202F01F0202EB42021E3A120542F085
:102B38000072D4E72022F3E711F4000F7FF4A4AE6B
:102B48001A68B2F1A04F01D00020F6E540F4000069
:102B580023498A6822F0E07210438860214A12688B
:102B680092092149A1FB02129209013202EB4202A9
:102B780092000192019A1AB1019A013A0192F9E779
:102B88000020DAE511F0807F7FF482AE1968174AD9
:102B980091421CD040F0807011498A6822F0E0729E
:102BA800104388600020C8E511F4800F11D119681E
:102BB8000E4A91420FD040F480020948816821F002
:102BC800E0710A4382600020B7E50020B5E50020E7
:102BD800B3E50020B1E50020AFE50220B0E500BF75
:102BE8000003005040000020632D3E050001005006
:102BF80070B5044603689A6812F0040200D00122F6
:102C0800986810F0080000D001200AB900286BD09D
:102C1800DA6812F0007F04D0A08B40F201129042D3
:102C28004ED0022910D023689A6812F0040F0BD0F6
:102C38009A6812F0020F07D19A6822F0004222F037
:102C48003F0242F010029A60012910D023689A6866
:102C580012F0080F0BD09A6812F0020F07D19A6889
:102C680022F0004222F03F0242F020029A6002293C
:102C780034D0032934D10C2500F05CFA06462368C9
:102C88009B682B422ED000F055FA801B0528F6D9F8
:102C980023689B682B42F2D0E36D43F01003E36591
:102CA800236E43F00103236601201CE0E36D43F02B
:102CB8001003E365236E43F001032366012012E04D
:102CC8000022196811F0400F04D108498A42EDD852
:102CD8000132F6E740221A600121A4E70825CBE774
:102CE8000425C9E7002070BD0020FCE7FFFF3FA3D3
:102CF80030B583B00023019303689A6812F0010F7E
:102D080058D1044699682D4A114219D19A6822F07F
:102D1800004222F03F0242F001029A60284B9B6871
:102D280013F4000F1CD0274B1B689B09264AA2FBF3
:102D380003239B09013303EB43039B0001930CE03E
:102D4800C36D43F01003C365036E43F001030366CC
:102D5800012030E0019B013B0193019B002BF9D13D
:102D680000F0E8F9054623681A6812F0010F1FD130
:102D78009A6812F0010F07D19A6822F0004222F0F7
:102D88003F0242F001029A6000F0D4F9431B022B83
:102D9800E9D923681B6813F0010FE4D1E36D43F010
:102DA8001003E365236E43F001032366012002E06C
:102DB800002000E0002003B030BD00BF3F000080CD
:102DC8000003005040000020632D3E0538B53A4B03
:102DD8009D6803689B6813F0040F69D1044605F0E9
:102DE8001F0590F85830012B64D0012380F8583023
:102DF800FFF77EFF002857D1E36D23F4706323F0BB
:102E0800010343F48073E36523682C4A93422FD06F
:102E18001A46934200D01DB9E26D22F48012E26591
:102E2800E26D12F4805F26D0226E22F0060222663E
:102E38001C221A60002384F8583022681F4B9A42DB
:102E48001CD013469A421CD0DDB1052D19D0092D8E
:102E580017D0E26D42F48012E265DB6813F0007F60
:102E680027D0E36D23F4405343F48053E36520E017
:102E78004FF0A042CDE700222266D9E74FF0A043E9
:102E8800E0E7D36813F0007F05D0E36D23F44053E7
:102E980043F48053E365936823F0004323F03F0332
:102EA80043F00403936004E0002384F8583000E002
:102EB800022038BD0220FCE700030050000100504A
:102EC80038B504460268936813F0020300D0012362
:102ED800916811F0010F39D0002B39D1936803F0B4
:102EE8000D03012B09D0E36D43F01003E365236E56
:102EF80043F001032366012029E0936823F000438F
:102F080023F03F0343F002039360236803221A600F
:102F180000F010F9054623689B6813F0010F13D0E1
:102F280000F008F9401B0228F5D923689B6813F0C4
:102F3800010FF0D0E36D43F01003E365236E43F017
:102F480001032366012002E0002000E0002038BDD4
:102F58000020FCE790F85830012B1AD010B5044631
:102F6800012380F858300321FFF742FE18B10023EF
:102F780084F8583010BD2046FFF7A2FF0028F6D18C
:102F8800E36D23F4885323F0010343F00103E36561
:102F9800EDE702207047000090F85820012A7FD002
:102FA80010B49DB00346012280F8582000221892E0
:102FB80019920068B0F1A04F39D000220192019A0D
:102FC800002A37D0926812F0040200D001228068EB
:102FD80010F0040F54D1002A52D10A68002A32D0C6
:102FE800304CA26822F46042486893F838C040EA3E
:102FF8004C300243A2604FF0A042926812F00102E6
:1030080000D001222848806810F0010000D001207B
:10301800024341D1234CA26822F4716222F00F02CC
:103028000868896801430A43A26000202DE01E4A0F
:103038000192C4E7DA6D42F02002DA65002283F8D3
:103048005820012024E017498A6822F460428A60E7
:103058004FF0A042926812F0010200D001221249FA
:10306800896811F0010100D001210A4316D10D49E8
:103078008A6822F4716222F00F028A60002004E05C
:10308800DA6D42F02002DA650120002283F8582028
:103098001DB05DF8044B70470020F6E70020F4E708
:1030A800022070470003005000010050104B1B68BD
:1030B8000BB90120704710B504464FF47A70B0FB85
:1030C800F3F30C4A1068B0FBF3F001F015F868B997
:1030D8000F2C01D901200AE0002221464FF0FF30D1
:1030E80000F0C4FF044B1C60002000E0012010BD6C
:1030F80038000020400000203C00002010B50320CC
:1031080000F0A2FF0F20FFF7D1FF10B101242046E5
:1031180010BD0446FEF7F2FBF9E70000034A136806
:10312800034909680B441360704700BF90040020EE
:1031380038000020014B1868704700BF9004002039
:10314800124BDA6802F00302D868C0F30310431C7C
:10315800032A11D00E48B0FBF3F00C4BDB68C3F325
:10316800062303FB00F0094BDB68C3F3416301331B
:103178005B00B0FBF3F070470648B0FBF3F0034B7D
:10318800DB68C3F3062303FB00F0ECE70010024002
:103198000024F40000127A00002800F04F8270B575
:1031A80082B00446036813F0010F37D0A44A93682D
:1031B80003F00C03D26802F003020C2B23D0082B77
:1031C80023D06368B3F5803F4ED0B3F5A02F51D01C
:1031D8009B4B1A6822F480321A601A6822F4802203
:1031E8001A606368002B52D0FFF7A4FF0546944B82
:1031F8001B6813F4003F11D1FFF79CFF401B6428A4
:10320800F5D9032023E2032AD9D18D4B1B6813F487
:10321800003F03D06368002B00F01282236813F08C
:10322800020F5DD0864A936803F00C03D26802F05F
:1032380003020C2B3AD0042B3AD0E368002B75D04C
:103248007F4A136843F480731360FFF773FF0546E2
:103258007B4B1B6813F4806F5FD1FFF76BFF401B3C
:103268000228F5D90320F2E1754A136843F4803344
:103278001360B6E703F18043A3F53C331A6842F4C0
:1032880080221A601A6842F480321A60A9E7FFF7B0
:1032980051FF05466A4B1B6813F4003FBED0FFF789
:1032A80049FF401B6428F5D90320D0E1022AC2D186
:1032B800634B1B6813F4806F03D0E368002B00F0A6
:1032C800C1815F4A536823F0FE43216943EA0163E1
:1032D80053605C4B1868FFF7E9FE002840F0B481A2
:1032E800236813F0080F4CD063699BB3544AD2F893
:1032F800943043F00103C2F89430FFF71BFF0546F2
:103308004F4BD3F8943013F0020F3AD1FFF712FF66
:10331800401B0228F4D9032099E1494A536823F055
:10332800FE43216943EA01635360D9E7444A1368BD
:1033380023F480731360FFF7FDFE0546404B1B68BE
:1033480013F4806FCCD0FFF7F5FE401B0228F5D9A7
:1033580003207CE13A4AD2F8943023F00103C2F802
:103368009430FFF7E7FE0546354BD3F8943013F059
:10337800020F06D0FFF7DEFE401B0228F4D9032017
:1033880065E1236813F0040F00F081802C4B9B6DDE
:1033980013F0805F36D12A4B9A6D42F080529A65BD
:1033A8009B6D03F080530193019B0125264B1B68FD
:1033B80013F4807F28D0A368012B39D0052B45D082
:1033C8001F4BD3F8902022F00102C3F89020D3F8C5
:1033D800902022F00402C3F89020A368002B43D069
:1033E800FFF7A8FE0646164BD3F8903013F0020FED
:1033F8004CD1FFF79FFE801B41F288339842F2D9E7
:10340800032024E10025D1E70F4A136843F48073B1
:103418001360FFF78FFE06460B4B1B6813F4807F83
:10342800C9D1FFF787FE801B0228F5D903200EE1DA
:10343800034AD2F8903043F00103C2F89030CCE749
:10344800001002403C00002000700040884BD3F878
:10345800902042F00402C3F89020D3F8902042F064
:103468000102C3F89020B8E7FFF764FE0646804BD8
:10347800D3F8903013F0020F08D0FFF75BFE801BE3
:1034880041F288339842F2D90320E0E0E5B9236895
:1034980013F0200F35D0A369E3B1754AD2F89830FC
:1034A80043F00103C2F89830FFF744FE0546704B1D
:1034B800D3F8983013F0020F23D1FFF73BFE401BDF
:1034C8000228F4D90320C2E0694A936D23F080539F
:1034D8009365DCE7664AD2F8983023F00103C2F816
:1034E8009830FFF727FE0546614BD3F8983013F064
:1034F800020F06D0FFF71EFE401B0228F4D9032056
:10350800A5E0E369002B00F0A180594A926802F017
:103518000C020C2A64D0022B13D0554A136823F0EE
:1035280080731360FFF706FE0446514B1B6813F0C7
:10353800007F4ED0FFF7FEFD001B0228F5D90320BF
:1035480085E04B4A136823F080731360FFF7F2FDA0
:103558000546474B1B6813F0007F06D0FFF7EAFDCE
:10356800401B0228F5D9032071E0414AD36841493C
:103578001940236A606A013843EA0013A06A43EAE3
:103588000023206B4008013843EA4053606B400831
:10359800013843EA4063E06A43EAC0630B43D360FF
:1035A800136843F080731360D36843F08073D3606B
:1035B800FFF7C0FD04462E4B1B6813F0007F06D1B1
:1035C800FFF7B8FD001B0228F5D903203FE00020D3
:1035D8003DE0274AD168284B0B40D360002036E0F5
:1035E800012B36D0224BDB6803F00301226A91429B
:1035F80031D103F0F002616A0139B2EB011F2CD11D
:1036080003F4FE42A16AB2EB012F28D103F07842FD
:10361800E16AB2EBC16F24D103F4C001226B5208F6
:10362800013AB1EB425F1ED103F0C063626B5208EE
:10363800013AB3EB426F18D1002008E0012070472F
:10364800012004E0012002E0012000E0002002B097
:1036580070BD0120FBE70120F9E70120F7E7012011
:10366800F5E70120F3E70120F1E70120EFE700BFCC
:10367800001002400C809F01FCFFEEFE1E4B9B6871
:1036880003F00C03042B33D01B4B9B6803F00C0393
:10369800082B2FD0184B9B6803F00C030C2B01D080
:1036A80000207047144BDA6802F00302D868C0F3B0
:1036B8000310431C032A11D01048B0FBF3F00E4B43
:1036C800DB68C3F3062303FB00F00B4BDB68C3F393
:1036D800416301335B00B0FBF3F070470848B0FB6F
:1036E800F3F0054BDB68C3F3062303FB00F0ECE7BC
:1036F8000248704702487047001002400024F40056
:1037080000127A00002800F0E680F8B50C4605465D
:10371800744B1B6803F00F038B420BD2714A13687A
:1037280023F00F030B431360136803F00F038B425E
:1037380040F0D3802E6816F001065FD06B68032B2B
:103748002FD0022B4DD0684B1B6813F4806F00F00C
:10375800C680FFF793FF654B98424DD9624A93683C
:1037680023F0F00343F08003936080265E4A936859
:1037780023F0030369680B439360FFF7DBFC0746FC
:10378800594B9B6803F00C036A68B3EB820F35D082
:10379800FFF7D0FCC01B41F288339842F0D90320D0
:1037A80078E0514B1B6813F0007F01D1012071E0D4
:1037B800FFF7C6FC4D4B98421AD94B4B9B6813F048
:1037C800F00F05D02E6816F00206CFD0AB688BB983
:1037D800454A936823F0F00343F080039360802602
:1037E800C4E7414B1B6813F4003FB2D1012051E0FC
:1037F8000026BBE70026B9E70026B7E72B6813F0D9
:10380800020F48D013F0040F04D0374A936843F4EA
:10381800E06393602B6813F0080F06D0324A936870
:1038280023F47C5343F4E06393602F4A936823F0B6
:10383800F003A9680B4393602A4B1B6803F00F033E
:10384800A34230D82B6813F0040F06D0264A936899
:1038580023F4E063E9680B4393602B6813F0080FC7
:1038680007D0214A936823F46053296943EAC103C6
:103878009360FFF703FF1C4B9B68C3F303131C4AB9
:10388800D35C03F01F03D8401A4B18601A4B186812
:10389800FFF70CFCF8BD802ECED1134A936823F0B5
:1038A800F0039360C8E70F4A136823F00F0323431C
:1038B8001360FFF73FFC06460A4B1B6803F00F0333
:1038C800A342BFD0FFF736FC801B41F288339842F1
:1038D800F2D90320DEE7012070470120DAE7012052
:1038E800D8E700BF002002400010024000B4C40422
:1038F800F8720008400000203C000020014B1868C6
:10390800704700BF4000002008B5FFF7F7FF054BE0
:103918009B68C3F30223044AD35C03F01F03D84017
:1039280008BD00BF001002400873000808B5FFF783
:10393800E5FF054B9B68C3F3C223044AD35C03F03D
:103948001F03D84008BD00BF0010024008730008DC
:10395800F0B583B00446036813F4002F69D0AE4B6A
:103968009B6D13F0805F1ED1AB4B9A6D42F0805275
:103978009A659B6D03F080530193019B0126A74A2A
:10398800136843F480731360FFF7D4FB0546A34B19
:103998001B6813F4807F08D1FFF7CCFB401B02287B
:1039A800F5D9032502E00026E9E7002545BB9A4B37
:1039B800D3F8903013F4407315D0226C9A4212D089
:1039C800954AD2F8903023F44073D2F8901041F41D
:1039D8008031C2F89010D2F8901021F48031C2F8EA
:1039E8009010C2F8903013F0010F10D145B98A4AEF
:1039F800D2F8903023F44073216C0B43C2F8903016
:103A0800C6B1854A936D23F08053936512E0FFF7A2
:103A180091FB0746804BD3F8903013F0020FE5D1A5
:103A2800FFF788FBC01B41F288339842F2D903257F
:103A3800DCE70025236813F0010F08D0764AD2F896
:103A4800883023F0030361680B43C2F88830236889
:103A580013F0020F08D0704AD2F8883023F00C0314
:103A6800A1680B43C2F88830236813F0040F08D00C
:103A7800694AD2F8883023F03003E1680B43C2F872
:103A88008830236813F0080F08D0634AD2F88830CA
:103A980023F0C00321690B43C2F88830236813F070
:103AA800200F08D05C4AD2F8883023F4406361695B
:103AB8000B43C2F88830236813F0400F08D0564AE9
:103AC800D2F8883023F44053A1690B43C2F88830F8
:103AD800236813F0800F08D04F4AD2F8883023F4B7
:103AE8004043E1690B43C2F88830236813F4807FB0
:103AF80008D0494AD2F8883023F44033216A0B436E
:103B0800C2F88830236813F4007F08D0424AD2F8FC
:103B1800883023F44023616A0B43C2F88830236855
:103B280013F4806F0CD03C4AD2F8883023F4401349
:103B3800A16A0B43C2F88830A36AB3F5801F57D037
:103B4800236813F4006F0CD0334AD2F8883023F47A
:103B58004003E16A0B43C2F88830E36AB3F5800F8B
:103B68004BD0236813F4805F0CD02B4AD2F88830EE
:103B780023F04073216B0B43C2F88830236BB3F1F9
:103B8800807F3FD0236813F4005F0CD0224AD2F81C
:103B9800883023F04063616B0B43C2F88830636B55
:103BA800B3F1006F33D0236813F4804F0CD01A4A56
:103BB800D2F8883023F04063A16B0B43C2F88830F9
:103BC800A36BB3F1006F2BD0236813F4004F0CD014
:103BD800114AD2F8883023F04053E16B0B43C2F806
:103BE8008830E36BB3F1805F1FD0284603B0F0BD87
:103BF800D36843F48013D360A2E7D36843F48013F7
:103C0800D360AEE7D36843F48013D360BAE7D368D0
:103C180043F48013D360C6E70010024000700040F0
:103C2800D36843F48013D360CEE7D36843F480337A
:103C3800D360DAE7F0B583B0002362E085685E0000
:103C48000324B44025EA0405CC68B4402C438460BE
:103C5800446824EA0C0C4C68C4F300149C4044EA01
:103C68000C0444605EE0DD08083550F8256003F078
:103C780007044FEA840C0F2404FA0CF426EA040E15
:103C88000C6904FA0CF444EA0E0440F8254060E09C
:103C9800052400E0002404FA0EF42C430CF1020C75
:103CA800554D45F82C40554CA568D44325EA0206E5
:103CB8004F6817F4801F01D042EA05064F4DAE60E9
:103CC800ED6804EA05064F6817F4001F01D042EAC0
:103CD80005064A4DEE606D6804EA05064F6817F45C
:103CE800003F01D042EA0506444D6E602D682C4025
:103CF8004E6816F4803F01D042EA05043F4A14603A
:103D080001330A6832FA03F474D04FF0010C0CFA4C
:103D180003FC1CEA0202F3D04C6804F00304013CE3
:103D2800012C8BD94C6804F00304032C0CD0C46814
:103D38005D004FF0030C0CFA05FC24EA0C0C8C68AF
:103D4800AC4044EA0C04C4604C6804F00304022C40
:103D580089D004684FEA430E4FF0030C0CFA0EFCAE
:103D680024EA0C0C4C6804F0030404FA0EF444EA48
:103D78000C0404604C6814F4403FC1D0204C256EFC
:103D880045F001052566246E04F001040194019CA8
:103D98004FEA930C0CF10205174C54F8255003F028
:103DA80003044FEA840E0F2404FA0EF425EA0405EE
:103DB800B0F1904F3FF46EAF124CA04212D004F510
:103DC8008064A04210D004F58064A0420ED004F5AF
:103DD8008064A0420CD004F58064A0423FF458AF40
:103DE800062458E7012456E7022454E7032452E73F
:103DF800042450E703B0F0BD000001400004014076
:103E080000100240000400480369194201D0012053
:103E18007047002070470AB181617047816270471E
:103E28007047000008B5054B5B69034200D108BD27
:103E3800024B5861FFF7F4FFF9E700BF00040140A7
:103E4800034690F82520D2B2022A09D00422C26380
:103E58000120012283F82520002283F824207047BE
:103E680001680A6822F00E020A60816C0A6822F46E
:103E780080720A6001680A6822F001020A60426CD6
:103E880002F01F01006C01228A404260DA6C196D51
:103E980051605A6D42B1116821F4807111609A6DB8
:103EA800D96D51600020D4E70020D2E708B590F81A
:103EB8002530DBB2022B09D00423C363012380F829
:103EC8002530002280F82420184608BD02681368AF
:103ED80023F00E0313600268136823F001031360D4
:103EE800826C136823F480731360436C03F01F0221
:103EF800016C012393404B60C36C026D5A60436DA3
:103F080033B11A6822F480721A60836DC26D5A60E8
:103F1800012380F82530002380F82430836B13B107
:103F280098470020D1E70020CFE70000002836D1CD
:103F38003E4B1B6803F4C063B3F5806F08D03B4A5F
:103F4800D2F8803023F48073C2F8803000207047A4
:103F5800364AD2F8803023F48073C2F88030136870
:103F680023F4C06343F400731360314B1B6832229F
:103F780002FB03F32F4AA2FB03239B0C013300E04F
:103F8800013B2A4A526912F4806F01D0002BF7D105
:103F9800264B5B6913F4806F44D100207047B0F55D
:103FA800007F08D0214A136823F4C06343F4806378
:103FB8001360002070471D4B1B6803F4C063B3F502
:103FC800806F08D0194AD2F8803043F48073C2F861
:103FD800803000207047154AD2F8803043F480734F
:103FE800C2F88030136823F4C06343F4007313608D
:103FF8000F4B1B68322202FB03F30E4AA2FB03237A
:104008009B0C013300E0013B084A526912F4806FAF
:1040180001D0002BF7D1054B5B6913F4806F03D1F6
:10402800002070470320704703207047007000404D
:104038004000002083DE1B43024A936843F4804318
:104048009360704700700040074AD36823F4E06328
:104058001B041B0C000200F4E060034343F0BF6341
:1040680043F40033D360704700ED00E000B5194B0E
:10407800DB68C3F30223C3F1070CBCF1040F28BFAC
:104088004FF0040C03F1040EBEF1060F18D9033BE0
:104098004FF0FF3E0EFA0CFC21EA0C0199400EFA93
:1040A80003F322EA0303194300280BDB0901C9B211
:1040B80000F1604000F5614080F800135DF804FBF2
:1040C8000023E5E700F00F000901C9B2024B1954BB
:1040D800F4E700BF00ED00E014ED00E0002807DB86
:1040E80000F01F02400901239340024A42F82030A1
:1040F800704700BF00E100E00138B0F1807F0BD2CB
:104108004FF0E0235861054AF02182F8231000207F
:10411800986107221A6170470120704700ED00E09E
:1041280000286FD010B50446436A33B94368B3F525
:10413800827F05D00023C36102E00023036143614D
:104148000023A36294F85D30002B52D0022384F838
:104158005D302268136823F040031360E368B3F509
:10416800E06F4CD90022B3F5706F04D0B3F5E06F5F
:1041780001D00023A362636803F48273A16801F489
:1041880004410B43216901F002010B43616901F00D
:1041980001010B43A16901F400710B43E16901F0CE
:1041A80038010B43216A01F080010B43A16A01F435
:1041B800005120680B430360638B03F00403616ABA
:1041C80001F010010B43616B01F008010B43E1683A
:1041D80001F470610B43216813434B602268D36973
:1041E80023F40063D36100202066012384F85D3046
:1041F80010BD84F85C302046FDF720FCA6E74FF49C
:104208008052B0E70120704730B4036A026A22F096
:10421800010202624568826922F4803222F0730248
:104228000C68224323F002038C6823431D4CA042F0
:104238000FD004F50064A0420BD004F54064A042FE
:1042480007D004F58064A04203D004F58064A0423E
:1042580005D123F00803CC68234323F00403114C51
:10426800A0420FD004F50064A0420BD004F54064CE
:10427800A04207D004F58064A04203D004F580640E
:10428800A04207D125F4407C4C6944EA0C0C8D69A6
:1042980045EA0C05456082614A684263036230BCA6
:1042A800704700BF002C014030B4036A026A22F450
:1042B800807202624468C26922F4803222F073027A
:1042C8000D682A4323F400738D6843EA0523184DCB
:1042D800A84203D005F50065A84206D123F400637F
:1042E800CD6843EA052323F48063114DA8420FD01B
:1042F80005F50065A8420BD005F54065A84207D032
:1043080005F58065A84203D005F58065A84207D168
:1043180024F4405C4C694CEA041C8C694CEA041493
:104328004460C2614A68C263036230BC704700BF20
:10433800002C014030B4036A026A22F480520262FF
:104348004468C26922F0807222F4E6420D6842EAAB
:10435800052223F400538D6843EA0533174DA8421C
:1043680003D005F50065A84206D123F40043CD68C3
:1043780043EA053323F48043104DA8420FD005F5D6
:104388000065A8420BD005F54065A84207D005F5A1
:104398008065A84203D005F58065A84207D124F4BA
:1043A800404C4C694CEA841C8C694CEA8414446087
:1043B800C2614A680264036230BC7047002C014045
:1043C80030B4036A026A22F4803202624468026DE1
:1043D80022F4803222F070020D682A4323F400335D
:1043E8008D6843EA05430F4DA8420FD005F50065D7
:1043F800A8420BD005F54065A84207D005F58065B1
:10440800A84203D005F58065A84204D124F480347D
:104418004D6944EA0524446002654A68826403627F
:1044280030BC7047002C014030B4036A026A22F4A1
:10443800801202624468026D22F0807222F4E04227
:104448000D6842EA052223F400138D6843EA0553F8
:104458000F4DA8420FD005F50065A8420BD005F511
:104468004065A84207D005F58065A84203D005F548
:104478008065A84204D124F480244D6944EA852447
:10448800446002654A68C264036230BC704700BF7A
:10449800002C014010B4036A046A24F00104046289
:1044A800846924F0F00C4CEA021223F00A030B434F
:1044B800826103625DF8044B704730B4056A046A90
:1044C80024F010040462846924F4407C4CEA022C31
:1044D8002CF4704C1B039BB243EA0C0325F0A00597
:1044E800090101F0A00129438361016230BC7047D2
:1044F80010B4036A046A24F010040462846924F482
:10450800704C4CEA023223F0A00343EA01138261A3
:1045180003625DF8044B704730B4056A046A24F4FA
:1045280080740462C46924F0030C4CEA020C2CF079
:10453800F00C1B01DBB243EA0C0325F420650902E9
:1045480001F420612943C361016230BC704730B473
:10455800056A046A24F480540462C46924F4407C23
:104568004CEA022C2CF4704C1B039BB243EA0C035C
:1045780025F42045090301F420412943C361016260
:1045880030BC7047836823F4401323F070030B4357
:1045980043F007038360704790F83D30DBB2012B8E
:1045A8002DD1022380F83D300368184A934218D071
:1045B800B3F1804F15D0A2F59432934211D002F591
:1045C800806293420DD002F59632934209D002F5EB
:1045D8004062934205D01A6842F001021A60002036
:1045E800704799680A4A0A40062A0AD0B2F5803FFD
:1045F80009D01A6842F001021A60002070470120B1
:104608007047002070470020704700BF002C014011
:10461800070001000368196A41F21112114208D11A
:10462800196A44F24442114203D11A6822F0010285
:104638001A60012380F83D30002070470C2914D8F7
:10464800DFE801F0071313130A1313130D131313E1
:1046580010000368586B70470368986B70470368CD
:10466800D86B70470368186C704700207047704714
:1046780070477047704770B505460368DE681C6967
:1046880014F0020F10D016F0020F0DD06FF00202D6
:104698001A610123037703689B6913F0030F7CD029
:1046A800FCF7AEFC00232B7714F0040F12D016F0A1
:1046B800040F0FD02B686FF004021A6102232B77C6
:1046C8002B689B6913F4407F6DD02846FCF798FC53
:1046D80000232B7714F0080F12D016F0080F0FD014
:1046E8002B686FF008021A6104232B772B68DB69AB
:1046F80013F0030F5ED02846FCF782FC00232B77CB
:1047080014F0100F12D016F0100F0FD02B686FF0A6
:1047180010021A6108232B772B68DB6913F4407F9A
:104728004FD02846FCF76CFC00232B7714F0010FC0
:1047380002D016F0010F4BD114F4025F02D016F02C
:10474800800F4DD114F4807F02D016F0800F4FD126
:1047580014F0400F02D016F0400F51D114F0200F82
:1047680002D016F0200F53D114F4801F02D016F493
:10477800801F55D114F4001F02D016F4001F57D122
:1047880014F4800F02D016F4800F59D114F4000FDE
:1047980002D016F4000F5BD170BDFFF769FF284601
:1047A800FFF767FF7EE72846FFF762FF2846FFF717
:1047B80060FF8DE72846FFF75BFF2846FFF759FFA4
:1047C8009CE72846FFF754FF2846FFF752FFABE760
:1047D8002B686FF001021A612846FFF748FFABE724
:1047E8002B686FF402521A61284600F07EFDA9E793
:1047F8002B686FF480721A61284600F077FDA7E7EE
:104808002B686FF040021A612846FFF733FFA5E7CF
:104818002B686FF020021A61284600F065FDA3E7B7
:104828002B686FF480121A61284600F060FDA1E73A
:104838002B686FF400121A61284600F059FD9FE7B3
:104848002B686FF480021A61284600F052FD9DE73C
:104858002B686FF400021A61284600F04BFD9BE7B5
:10486800007F70470368304A90420ED0B0F1804F05
:104878000BD0A2F59432904207D002F580629042A4
:1048880003D002F59632904203D123F070034A68B0
:104898001343254A90421AD0B0F1804F17D0A2F5A1
:1048A8009432904213D002F5806290420FD002F504
:1048B800963290420BD002F54062904207D002F542
:1048C8008062904203D002F58062904203D123F4C3
:1048D8004073CA68134323F080034A691343036093
:1048E8008B68C3620B6883620F4B98420FD003F545
:1048F800006398420BD003F54063984207D003F554
:104908008063984203D003F58063984201D10B6914
:10491800036301234361036913F0010F03D00369A3
:1049280023F0010303617047002C014060B310B508
:10493800044690F83D3013B3022384F83D302146F5
:1049480051F8040BFFF78EFF012384F8483084F8F0
:104958003E3084F83F3084F8403084F8413084F8A1
:10496800423084F8433084F8443084F8453084F881
:10497800463084F8473084F83D30002010BD80F878
:104988003C30FDF7C7F8D7E70120704760B310B592
:10499800044690F83D3013B3022384F83D30214695
:1049A80051F8040BFFF75EFF012384F8483084F8C0
:1049B8003E3084F83F3084F8403084F8413084F841
:1049C800423084F8433084F8443084F8453084F821
:1049D800463084F8473084F83D30002010BD80F818
:1049E8003C30FDF70BF9D7E70120704760B310B5ED
:1049F800044690F83D3013B3022384F83D30214635
:104A080051F8040BFFF72EFF012384F8483084F88F
:104A18003E3084F83F3084F8403084F8413084F8E0
:104A2800423084F8433084F8443084F8453084F8C0
:104A3800463084F8473084F83D30002010BD80F8B7
:104A48003C30FDF78DF8D7E70120704730B4036A92
:104A5800026A22F0100202624468826922F08072BF
:104A680022F4E6420D6842EA052223F020038D680D
:104A780043EA0513174DA84203D005F50065A8427F
:104A880006D123F08003CD6843EA051323F04003E1
:104A9800104DA8420FD005F50065A8420BD005F5CA
:104AA8004065A84207D005F58065A84203D005F502
:104AB8008065A84207D124F4406C4C694CEA840C08
:104AC8008C694CEA8404446082614A6882630362A8
:104AD80030BC7047002C014038B590F83C30012BB1
:104AE80000F0958004460D46012380F83C30142AD6
:104AF80000F28880DFE802F00B8686861F868686AD
:104B080034868686488686865D8686867100006835
:104B1800FFF77AFB2268936943F0080393612268E0
:104B2800936923F0040393612268936929690B430D
:104B38009361002067E00068FFF788FF22689369A7
:104B480043F4006393612268936923F4806393615B
:104B580022689369296943EA01239361002052E09E
:104B68000068FFF7A1FB2268D36943F00803D3610B
:104B78002268D36923F00403D3612268D3692969C1
:104B88000B43D36100203EE00068FFF7D3FB2268A7
:104B9800D36943F40063D3612268D36923F4806343
:104BA800D3612268D369296943EA0123D3610020CC
:104BB80029E00068FFF704FC2268136D43F008033E
:104BC80013652268136D23F0040313652268136DBF
:104BD80029690B431365002015E00068FFF724FCE2
:104BE8002268136D43F4006313652268136D23F480
:104BF800806313652268136D296943EA01231365ED
:104C0800002000E00120002384F83C3038BD022059
:104C1800FCE7000070B4066A046A24F00104046228
:104C28008469154DA84215D0B0F1804F12D0A5F572
:104C38009435A8420ED005F58065A8420AD005F53E
:104C48009635A84206D005F54065A84202D044F042
:104C5800010202E024F00304224322F0F0021B01C7
:104C6800DBB2134326F00A0201F00A011143836103
:104C7800016270BC704700BF002C014038B590F845
:104C88003C30012B5AD004460D46012380F83C30B5
:104C980052B1042A1AD0082A2BD00C2A3BD0012062
:104CA800002384F83C3038BDCB684A68096800683E
:104CB800FFF7B0FF2268936923F00C039361226821
:104CC8009369A9680B4393610020E9E7CB684A68B8
:104CD80009680068FFF7F1FB2268936923F44063D1
:104CE800936122689369A96843EA012393610020CC
:104CF800D6E7CB684A6809680068FFF70DFC2268A8
:104D0800D36923F00C03D3612268D369A9680B43E4
:104D1800D3610020C4E7CB684A6809680068FFF7D8
:104D280016FC2268D36923F44063D3612268D369EF
:104D3800A96843EA0123D3610020B1E70220B2E762
:104D480010B4846824F47F4C42EA03220A4342EAFE
:104D58000C0282605DF8044B7047000090F83C300C
:104D6800012B00F08F8010B50446012380F83C30F9
:104D7800022380F83D3002689068434B03409360FB
:104D88000B68702B55D031D8502B6CD00CD9602BB8
:104D98002AD1CA6849682068FFF7AAFB6021206801
:104DA800FFF7F0FB002035E0402B0AD1CA684968BC
:104DB8002068FFF76FFB40212068FFF7E3FB002026
:104DC80028E05BD8202B07D003D9302B04D0012052
:104DD80020E00BB1102B05D119462068FFF7D2FB54
:104DE800002017E0012015E0012013E0B3F5005F73
:104DF8002CD00BD9254A9342EED012D9244A93429B
:104E0800EAD030329342E7D0012003E0B3F5805F67
:104E180036D10020012384F83D30002384F83C304B
:104E280010BDB3F1101FD7D0103A9342D4D001204F
:104E3800F0E7CB684A6889682068FFF781FF226835
:104E4800936843F0770393600020E3E7CB684A68F0
:104E580089682068FFF774FF2268936843F48043E9
:104E680093600020D6E7CA6849682068FFF712FBFC
:104E780050212068FFF786FB0020CBE70120C9E717
:104E88000120C7E7022070478800CEFF30001000DD
:104E98004000100001F01F01012303FA01FC036A1E
:104EA80023EA0C030362036A02FA01F10B4303626B
:104EB8007047000010B504460846002947D194F809
:104EC8003E30DBB2013B18BF0123002B40F0948039
:104ED800002867D1022384F83E3001220146206869
:104EE800FFF7D8FF2368474A93420FD002F50062C4
:104EF80093420BD002F54062934207D002F58062DC
:104F0800934203D002F58062934203D15A6C42F473
:104F180000425A6423683B4A93425FD0B3F1804F02
:104F28005CD0A2F59432934258D002F58062934245
:104F380054D002F59632934250D002F54062934223
:104F48004CD01A6842F001021A60002055E004298A
:104F58000CD0082911D00C2916D010291BD094F890
:104F68004330DBB2013B18BF0123AEE794F83F3072
:104F7800DBB2013B18BF0123A7E794F84030DBB24E
:104F8800013B18BF0123A0E794F84130DBB2013B95
:104F980018BF012399E794F84230DBB2013B18BFF0
:104FA800012392E7042809D008280BD00C280DD03B
:104FB80010280FD0022384F843308EE7022384F8A8
:104FC8003F308AE7022384F8403086E7022384F8DA
:104FD800413082E7022384F842307EE799680A4A22
:104FE8000A40062A0AD0B2F5803F09D01A6842F072
:104FF80001021A60002000E0012010BD0020FCE73B
:105008000020FAE7002C01400700010010B5044613
:105018000B4619BB90F83E00C0B2002B3AD194F869
:105028004420D2B2012840F0B880012A40F0B6806E
:10503800002B3FD1022184F83E10002B56D10221CB
:1050480084F844100C2B00F2AA80DFE803F05FA874
:10505800A8A886A8A8A88CA8A8A89200042909D05E
:1050680008290BD00C290DD010290FD090F8430037
:10507800C0B2D2E790F83F00C0B2CEE790F8400047
:10508800C0B2CAE790F84100C0B2C6E790F8420043
:10509800C0B2C2E7042B05D0082B07D094F84720EC
:1050A800D2B2BFE794F84520D2B2BBE794F84620C5
:1050B800D2B2B7E7042B09D0082B0BD00C2B0DD09C
:1050C800102B0FD0022184F84310B6E7022184F890
:1050D8003F10B2E7022184F84010AEE7022184F8BD
:1050E8004110AAE7022184F84210A6E7042B05D054
:1050F800082B07D0022184F84710A3E7022184F87F
:1051080045109FE7022184F846109BE72168CA688A
:1051180042F00202CA60012219462068FFF7BAFE6F
:105128002368224A93422AD0B3F1804F27D0A2F5B0
:105138009432934223D002F5806293421FD002F545
:10514800963293421BD002F54062934217D01A68F8
:1051580042F001021A60002020E02168CA6842F08B
:105168000402CA60D7E72168CA6842F00802CA6028
:10517800D1E72168CA6842F01002CA60CBE7996893
:105188000B4A0A40062A0CD0B2F5803F0BD01A68A9
:1051980042F001021A60002000E0012010BD104614
:1051A800FCE70020FAE70020F8E700BF002C0140E8
:1051B8000700010090F83C30012B40D030B40123A7
:1051C80080F83C30022380F83D30026853689468C8
:1051D8001C4DAA4203D005F50065AA4203D123F469
:1051E80070034D682B4323F0007323F070030D68A0
:1051F8002B4353600368134A934212D0B3F1804F94
:105208000FD0A2F5943293420BD002F580629342FC
:1052180007D002F59632934203D002F540629342DA
:1052280004D124F080048A6814439C60012380F828
:105238003D30002380F83C30184630BC70470220CF
:10524800704700BF002C014090F83C30012B46D03D
:1052580010B4012380F83C30CB6823F440738A688B
:10526800134323F480634A68134323F400630A68F2
:10527800134323F480530A69134323F400534A6900
:10528800134323F480430A6B134323F470238A697E
:1052980043EA024323F08053CA6913430268114C5E
:1052A800A24203D004F50064A24210D123F4700393
:1052B8008C6A43EA045323F080730C6A234323F077
:1052C80000734C6A234323F00053C96A0B435364A9
:1052D800002380F83C3018465DF8044B70470220E4
:1052E800704700BF002C01407047704770477047F7
:1052F800704770477047026852E8003F23F4907384
:1053080042E800310029F6D1026802F1080353E8A7
:10531800003F23F0805323F00103083242E80031B4
:105328000029F1D1C36E012B06D02023C0F88C30A0
:105338000023C36643677047026852E8003F23F0C2
:10534800100342E800310029F6D1EEE7704708B5AE
:10535800026852E8003F23F0400342E80031002988
:10536800F6D12023C0F8883000238367FFF7EEFFCB
:1053780008BD704708B5806A0023A0F85E30A0F821
:105388005630FFF7F6FF08BD7047000070B50446B9
:105398000168CB6908688D6840F60F021A4008D189
:1053A80013F0200F05D010F0200F34D115F0805FD6
:1053B80031D12AB1994A2A4033D1994E304230D15D
:1053C800E26E012A00F0C68013F4801F03D015F4A2
:1053D800800F40F0658113F0800F07D010F0800F28
:1053E80040F0658115F4000F40F0618113F0400F23
:1053F80003D010F0400F40F0618113F4000F03D088
:1054080010F0804F40F05E8113F0807F02D00028BA
:10541800C0F25C8170BD636F002BFBD020469847BB
:10542800F8E713F0010F09D010F4807F06D00126A9
:105438000E62D4F890103143C4F8901013F0020FA4
:105448000BD015F0010F08D0216802260E62D4F89F
:10545800901041F00401C4F8901013F0040F0BD021
:1054680015F0010F08D0216804260E62D4F89010B8
:1054780041F00201C4F8901013F0080F0BD010F09F
:10548800200F00D13AB1226808211162D4F8902087
:105498000A43C4F8902013F4006F0CD010F0806F0A
:1054A80009D022684FF400611162D4F8902042F0CC
:1054B8002002C4F89020D4F89020002AAAD013F033
:1054C800200F09D010F0200F02D115F0805F03D013
:1054D800636F0BB120469847D4F8902023689B68E7
:1054E80013F0400F02D112F0280F2CD02046FFF7FE
:1054F80002FF23689B6813F0400F20D0226802F156
:10550800080353E8003F23F04003083242E8003123
:105518000029F3D1D4F880306BB1424A9A63D4F8A9
:105528008000FEF7C3FC00283FF474AFD4F8800075
:10553800836B98476EE72046FFF71BFF6AE7204614
:10554800FFF717FF66E72046FFF713FF0023C4F8AD
:1055580090305FE713F0100F3FF436AF10F0100FE4
:105568003FF432AF10230B6223689B6813F0400F9F
:105578005AD0D4F8802013685B689BB2002B3FF4A4
:1055880049AFB4F85C1099427FF644AFA4F85E3096
:1055980013681B6813F0200F32D1226852E8003FCD
:1055A80023F4807342E800310029F6D1226802F121
:1055B800080353E8003F23F00103083242E80031B2
:1055C8000029F3D1226802F1080353E8003F23F0D1
:1055D8004003083242E800310029F3D12023C4F8FF
:1055E8008C300023E366226852E8003F23F0100362
:1055F80042E800310029F6D1D4F88000FEF720FCFB
:1056080002232367B4F85C10B4F85E309BB2C91A61
:1056180089B22046FFF7B8FEFCE600BF0100001083
:10562800200100047D530008B4F85C10B4F85E3023
:105638009BB2C91A89B2B4F85E309BB2002B3FF412
:10564800E9AE00293FF4E6AE226852E8003F23F4B1
:10565800907342E800300028F6D1226802F108036E
:1056680053E8003F23F0805323F00103083242E857
:1056780000300028F1D12023C4F88C300023E366E1
:105688006367226852E8003F23F0100342E80030C5
:105698000028F6D1022323672046FFF775FEB9E6F6
:1056A8004FF480130B62204600F02AFBB2E6A36F8A
:1056B800002B3FF4AFAE20469847ABE62046FFF7F5
:1056C80046FEA7E6204600F01DFBA3E6204600F0B4
:1056D80018FB9FE670B504460168836802691343A6
:1056E80042691343C269134308688B4A0240134353
:1056F8000B602268536823F44053E1680B435360FE
:10570800A1692268854B9A4201D0236A194393689C
:1057180023F06E4323F430630B4393602268D36A0B
:1057280023F00F03616A0B43D36223687C4A9342D8
:1057380023D07C4A934234D07B4A93424AD07B4A56
:10574800934259D0754A934268D0102273498B42CC
:1057580000F09580E069B0F5004F00F0D280082A8B
:1057680000F24F81DFE812F01201340110014D01FF
:1057780037014D014D014D013A0102F55842D2F869
:10578800882002F00302032A09D8DFE802F00204A5
:105798005C060122DAE70422D8E70822D6E71022BD
:1057A800D4E702F5E632D2F8882002F00C020C2A7F
:1057B8000ED8DFE802F0070D0D0D090D0D0D4A0D8D
:1057C8000D0D0B000022C1E70422BFE70822BDE748
:1057D8001022BBE702F5E432D2F8882002F030024A
:1057E800202A34D004D8A2B3102A34D10422ADE739
:1057F800302A32D10822A9E702F5E232D2F888200D
:1058080002F0C002802A2AD004D852B3402A2AD1F2
:1058180004229BE7C02A28D1082297E702F5C8325C
:10582800D2F8882002F44062B2F5006F1FD005D884
:10583800FAB1B2F5806F1ED1042287E7B2F5406F46
:105848001BD1082282E7022280E702227EE7022299
:105858007CE700227AE7102278E7102276E7022216
:1058680074E7002272E7102270E710226EE7022226
:105878006CE700226AE7102268E7102266E7082A28
:1058880000F2AF80DFE802F008AD3BAD38ADADAD5A
:1058980005004FF4004004E0FEF736F8002800F059
:1058A800A280626A224B33F81220B0FBF2F36568DB
:1058B80005EB4501994200F29880B3EB053F00F2F1
:1058C8009680002633463146FBF790F9090241EAF3
:1058D800106100026B08C0182A46334641F10001E6
:1058E800FBF784F9A0F54072124B9A4200F28180CE
:1058F8002368D860304662E0FDF7C0FECEE70E4868
:10590800CFE7082A77D8DFE802F0193905763C7620
:1059180076761D00084815E0F369FFCF0080004047
:10592800003801400044004000480040004C00405E
:10593800D0720008FFFC0F000024F400FDF7E4FF1C
:1059480000285AD0626A324B33F81230B0FBF3F0B9
:105958006268530803EB4000B0FBF2F0A0F11002BC
:105968004FF6EF739A424AD883B223F00F03C0F37D
:10597800420018432368D860002020E0FDF7D6FFD6
:10598800DEE7FDF77BFEDBE7224803E0FDF7BCFF1F
:10599800002838D0626A1E4B33F81230B0FBF3F09F
:1059A800636800EB5300B0FBF3F0A0F110024FF670
:1059B800EF739A4229D8236880B2D8600020012367
:1059C800A4F86A30A4F8683000236367A36770BD41
:1059D800FDF7ACFFDCE7FDF751FED9E74FF40040D7
:1059E800D8E70120EBE70020E9E70120E7E70120FD
:1059F800E5E70120E3E70120E1E70020DFE70120F8
:105A0800DDE70120DBE70020D9E70120D7E700BF69
:105A1800D07200080024F400836A13F0080F06D03F
:105A28000268536823F40043816B0B435360836A15
:105A380013F0010F06D00268536823F40033C16ADB
:105A48000B435360836A13F0020F06D00268536851
:105A580023F48033016B0B435360836A13F0040F04
:105A680006D00268536823F48023416B0B435360CC
:105A7800836A13F0100F06D00268936823F48053EA
:105A8800C16B0B439360836A13F0200F06D0026842
:105A9800936823F40053016C0B439360836A13F0FB
:105AA800400F0AD00268536823F48013416C0B43FB
:105AB8005360436CB3F5801F0BD0836A13F0800FDB
:105AC80006D00268536823F40023C16C0B4353606B
